:10000000F5C0000021C100001FC100001DC100009B
:100010001BC1000019C1000017C1000015C100007C
:1000200013C1000011C100000FC100000DC100008C
:100030000BC1000009C1000007C1000005C100009C
:1000400003C1000001C10000FFC00000FDC00000AE
:10005000FBC00000F9C00000F7C000008CC3000026
:10006000F3C00000FBC30000D0C30000EDC00000DF
:10007000EBC00000E9C00000E7C00000E5C00000E0
:10008000E3C00000E1C00000DFC00000DDC00000F0
:10009000DBC00000D9C00000D7C00000D5C0000000
:1000A000D3C00000D1C00000CFC00000CDC0000010
:1000B000CBC00000C9C00000C7C00000C5C0000020
:1000C000C3C00000C1C00000BFC00000BDC0000030
:1000D000BBC00000B9C00000B7C00000B5C0000040
:1000E000B3C0000000000A0B02090C0D0E08070344
:1000F00004010000000000000000000000000000FB
:1001000000000000000000000000000000000000EF
:1001100012111000000000000000000000000000AC
:100120000000000000000000000000002200250088
:1001300028002B002E0031003400020100000501D0
:1001400008010B0100002100240027002A002D00D7
:100150003000330001010000040107010A01050518
:100160000505070508080808020202020A0A08082D
:10017000040404040101010101010101030303035B
:1001800003030303040707070C0C0C0C0C0C0C0CEA
:100190000202020206060606060606060B0B0B0BFB
:1001A0000B0B0B0B01021020200808102040102020
:1001B000408002010201080402010102040810202B
:1001C0004080804020100804020180040201804029
:1001D0002010080402010804020101020408102092
:1001E00040800102040810204080290511241FBE10
:1001F000CFEFD1E2DEBFCDBF00E00CBF12E0A0E048
:10020000B2E0E0ECFAE000E00BBF02C007900D9214
:10021000A231B107D9F722E0A2E1B2E001C01D92FC
:10022000A83BB207E1F710E0C6EFD0E000E005C060
:1002300021970109802FFE0139D4C53FD10780E005
:100240000807B1F741D33AC4DBCE90E0FC01EC558E
:10025000FE4F2491825A9E4FFC018491882399F08D
:1002600090E0880F991FFC01EC5BFE4FA591B491C3
:10027000FC01E65DFE4F859194918FB7F894EC9167
:10028000E22BEC938FBF0895AF92BF92CF92DF9293
:10029000EF92FF920F931F93CF93DF936C017B013B
:1002A0008B01040F151FEB015E01AE18BF08C017CC
:1002B000D10759F06991D601ED91FC910190F0813F
:1002C000E02DC6011995892B79F7C501DF91CF91F2
:1002D0001F910F91FF90EF90DF90CF90BF90AF9064
:1002E0000895FC01538D448D252F30E0842F90E03C
:1002F000821B930B541710F0CF9608950197089521
:10030000FC01918D828D981761F0A28DAE0FBF2FE9
:10031000B11D5D968C91928D9F5F9F73928F90E03F
:1003200008958FEF9FEF0895FC01918D828D9817AE
:1003300031F0828DE80FF11D858D90E008958FEFEB
:100340009FEF0895FC01918D228D892F90E0805CB4
:100350009F4F821B91098F739927089582E192E044
:10036000F1DF21E0892B09F420E0822F0895FC01C0
:10037000A48DA80FB92FB11DA35ABF4F2C91848D06
:1003800090E001968F739927848FA689B7892C9363
:10039000A089B1898C91837080648C93938D848DB6
:1003A000981306C00288F389E02D80818F7D8083B9
:1003B0000895EF92FF920F931F93CF93DF93EC0179
:1003C00081E0888F9B8D8C8D98131AC0E889F989FC
:1003D000808185FF15C09FB7F894EE89FF896083FF
:1003E000E889F98980818370806480839FBF81E080
:1003F00090E0DF91CF911F910F91FF90EF900895C2
:10040000F62E0B8D10E00F5F1F4F0F731127E02E9C
:100410008C8D8E110BC00FB607FCFACFE889F989D5
:10042000808185FFF5CFCE01A2DFF2CFEB8DEC0FFF
:10043000FD2FF11DE35AFF4FF0829FB7F8940B8F09
:10044000EA89FB8980818062D0CFCF93DF93EC0172
:10045000888D8823B1F0AA89BB89E889F9898C91B4
:1004600085FD03C0808186FD0CC00FB607FCF7CF69
:100470008C9185FFF2CF808185FFEDCFCE0177DFB4
:10048000EACFDF91CF91089580E090E0892B21F0B1
:1004900065DF81110E94000080E090E0892B49F027
:1004A00080E090E0892B29F00E94000081110E94D9
:1004B000000080E090E0892B49F080E090E0892BFB
:1004C00029F00E94000081110E94000080E090E06D
:1004D000892B49F080E090E0892B29F00E940000F0
:1004E00081110C9400000895282F30E0F901EC519F
:1004F000FF4F9491F901EC55FE4F4491225A3E4F23
:10050000F9012491222309F434C0992309F191506F
:100510009231F0F4E92FF0E08827EF56FD4F8F4F2E
:10052000C5C2C202C602A302BA02BE02A802C90222
:10053000CF02D302D902DD02E102E702EB02A802F8
:10054000EF02F502F902809180008F77809380009E
:10055000E22FF0E0EE0FFF1FE65DFE4FA591B49194
:100560008FB7F894EC91611148C040954E234C939D
:100570008FBF0895809180008F7DE8CF80918000AB
:10058000877FE4CF84B58F7784BDE2CF84B58F7D3C
:10059000FBCF8091B0008F778093B000D9CF80914E
:1005A000B0008F7DF9CF809190008F77809390007D
:1005B000CFCF809190008F7DF9CF80919000877F81
:1005C000F5CF8091A0008F778093A000C1CF80915C
:1005D000A0008F7DF9CF8091A000877FF5CF80911B
:1005E00020018F7780932001B3CF809120018F7DF0
:1005F000F9CF80912001877FF5CF4E2BB8CF982F70
:10060000E82FF0E0EC51FF4FE491E150E23108F0C7
:10061000AFC0F0E08827E65FFC4F8F4F47C2210351
:1006200026032B0335033F03B80349035103590342
:1006300063036D03770386039003B8039A03A4034F
:10064000AE0384B5806884BD67BD089584B58062BB
:1006500084BD68BD0895809180008068809380008B
:100660007093890060938800089580918000806273
:100670008093800070938B0060938A00089580912E
:10068000800088608093800070938D0060938C0060
:1006900008958091B00080688093B0006093B300AB
:1006A00008958091B00080628093B0006093B400A0
:1006B00008958091900080688093900070939900D5
:1006C00060939800089580919000806280939000DC
:1006D00070939B0060939A000895809190008860C9
:1006E0008093900070939D0060939C00089580918A
:1006F000A00080688093A0008091A0008F7B8093F1
:10070000A0007093A9006093A80008958091A000B4
:1007100080628093A0007093AB006093AA0008955C
:100720008091A00088608093A0007093AD006093DA
:10073000AC0008958091200180688093200170931F
:10074000290160932801089580912001806280939F
:10075000200170932B0160932A010895809120015C
:1007600088608093200170932D0160932C0108957F
:1007700060E0892FB9CE1F920F920FB60F9211240D
:100780002F933F938F939F93AF93BF938091B40226
:100790009091B502A091B602B091B7023091B30228
:1007A00023E0230F2D3758F50196A11DB11D20938D
:1007B000B3028093B4029093B502A093B602B093B3
:1007C000B7028091AF029091B002A091B102B091B6
:1007D000B2020196A11DB11D8093AF029093B002A9
:1007E000A093B102B093B202BF91AF919F918F914C
:1007F0003F912F910F900FBE0F901F90189526E8F4
:10080000230F0296A11DB11DD2CF1F920F920FB6DA
:100810000F9211240BB60F922F933F934F935F9338
:100820006F937F938F939F93AF93BF93EF93FF93B8
:1008300082E192E09CDDFF91EF91BF91AF919F919A
:100840008F917F916F915F914F913F912F910F9079
:100850000BBE0F900FBE0F901F9018951F920F9216
:100860000FB60F9211240BB60F922F938F939F9375
:10087000EF93FF93E0912202F09123028081E091B7
:100880002802F091290282FD1DC0908180912B02E7
:100890008F5F8F7320912C02821741F0E0912B0221
:1008A000F0E0EE5EFD4F958F80932B02FF91EF916C
:1008B0009F918F912F910F900BBE0F900FBE0F90B5
:1008C0001F9018958081F2CF789484B5826084BDA2
:1008D00084B5816084BD85B5826085BD85B5816044
:1008E00085BD80916E00816080936E0010928100C2
:1008F000809181008260809381008091810081607D
:10090000809381008091800081608093800080913D
:10091000B10084608093B1008091B00081608093C9
:10092000B00080919100826080939100809191004D
:10093000816080939100809190008160809390000D
:100940008091A10082608093A1008091A1008160CC
:100950008093A1008091A00081608093A00080918D
:100960002101826080932101809121018160809327
:1009700021018091200181608093200180917A0083
:10098000846080937A0080917A00826080937A00FC
:1009900080917A00816080937A0080917A008068EB
:1009A00080937A001092C100E0912202F09123021C
:1009B00082E08083E0911E02F0911F021082E0919C
:1009C0002002F09121028FEC808310922A02E091A4
:1009D0002602F091270286E08083E0912402F091C4
:1009E0002502808180618083E0912402F0912502BC
:1009F000808188608083E0912402F09125028081CB
:100A000080688083E0912402F091250280818F7DAF
:100A1000808382E01ADC83E018DC84E016DC85E069
:100A200014DC82E012DC64E670E082E0E8DD83E062
:100A30000CDC60E083E058DD84E007DC64E670E015
:100A400084E0DDDD85E001DC60E085E04DDD1CDD7E
:100A5000E8CFE2E1F2E01382128288EE93E0A0E0B8
:100A6000B0E084839583A683B78384E092E091838A
:100A7000808385EC90E09587848784EC90E097876D
:100A8000868780EC90E0918B808B81EC90E0938B5B
:100A9000828B82EC90E0958B848B86EC90E0978B38
:100AA000868B118E128E138E148E0895EE0FFF1FFB
:100AB000881F8BBF0790F691E02D1994F894FFCF13
:100AC00000000000D901440171012502A20180014A
:020AD00094018F
:00000001FF
